{
  "_format": "hh-sol-artifact-1",
  "contractName": "NFTMiniUtopiaToken",
  "sourceName": "contracts/NFTMiniUtopiaToken.sol",
  "abi": [
    {
      "inputs": [],
      "stateMutability": "nonpayable",
      "type": "constructor"
    },
    {
      "anonymous": false,
      "inputs": [
        {
          "indexed": true,
          "internalType": "address",
          "name": "owner",
          "type": "address"
        },
        {
          "indexed": true,
          "internalType": "address",
          "name": "spender",
          "type": "address"
        },
        {
          "indexed": false,
          "internalType": "uint256",
          "name": "value",
          "type": "uint256"
        }
      ],
      "name": "Approval",
      "type": "event"
    },
    {
      "anonymous": false,
      "inputs": [
        {
          "indexed": true,
          "internalType": "address",
          "name": "from",
          "type": "address"
        },
        {
          "indexed": true,
          "internalType": "address",
          "name": "to",
          "type": "address"
        },
        {
          "indexed": false,
          "internalType": "uint256",
          "name": "value",
          "type": "uint256"
        }
      ],
      "name": "Transfer",
      "type": "event"
    },
    {
      "inputs": [],
      "name": "DOMAIN_SEPARATOR",
      "outputs": [
        {
          "internalType": "bytes32",
          "name": "",
          "type": "bytes32"
        }
      ],
      "stateMutability": "view",
      "type": "function"
    },
    {
      "inputs": [
        {
          "internalType": "address",
          "name": "owner",
          "type": "address"
        },
        {
          "internalType": "address",
          "name": "spender",
          "type": "address"
        }
      ],
      "name": "allowance",
      "outputs": [
        {
          "internalType": "uint256",
          "name": "",
          "type": "uint256"
        }
      ],
      "stateMutability": "view",
      "type": "function"
    },
    {
      "inputs": [
        {
          "internalType": "address",
          "name": "spender",
          "type": "address"
        },
        {
          "internalType": "uint256",
          "name": "amount",
          "type": "uint256"
        }
      ],
      "name": "approve",
      "outputs": [
        {
          "internalType": "bool",
          "name": "",
          "type": "bool"
        }
      ],
      "stateMutability": "nonpayable",
      "type": "function"
    },
    {
      "inputs": [
        {
          "internalType": "address",
          "name": "account",
          "type": "address"
        }
      ],
      "name": "balanceOf",
      "outputs": [
        {
          "internalType": "uint256",
          "name": "",
          "type": "uint256"
        }
      ],
      "stateMutability": "view",
      "type": "function"
    },
    {
      "inputs": [],
      "name": "decimals",
      "outputs": [
        {
          "internalType": "uint8",
          "name": "",
          "type": "uint8"
        }
      ],
      "stateMutability": "view",
      "type": "function"
    },
    {
      "inputs": [
        {
          "internalType": "address",
          "name": "spender",
          "type": "address"
        },
        {
          "internalType": "uint256",
          "name": "subtractedValue",
          "type": "uint256"
        }
      ],
      "name": "decreaseAllowance",
      "outputs": [
        {
          "internalType": "bool",
          "name": "",
          "type": "bool"
        }
      ],
      "stateMutability": "nonpayable",
      "type": "function"
    },
    {
      "inputs": [
        {
          "internalType": "address",
          "name": "spender",
          "type": "address"
        },
        {
          "internalType": "uint256",
          "name": "addedValue",
          "type": "uint256"
        }
      ],
      "name": "increaseAllowance",
      "outputs": [
        {
          "internalType": "bool",
          "name": "",
          "type": "bool"
        }
      ],
      "stateMutability": "nonpayable",
      "type": "function"
    },
    {
      "inputs": [],
      "name": "name",
      "outputs": [
        {
          "internalType": "string",
          "name": "",
          "type": "string"
        }
      ],
      "stateMutability": "view",
      "type": "function"
    },
    {
      "inputs": [
        {
          "internalType": "address",
          "name": "owner",
          "type": "address"
        }
      ],
      "name": "nonces",
      "outputs": [
        {
          "internalType": "uint256",
          "name": "",
          "type": "uint256"
        }
      ],
      "stateMutability": "view",
      "type": "function"
    },
    {
      "inputs": [
        {
          "internalType": "address",
          "name": "owner",
          "type": "address"
        },
        {
          "internalType": "address",
          "name": "spender",
          "type": "address"
        },
        {
          "internalType": "uint256",
          "name": "value",
          "type": "uint256"
        },
        {
          "internalType": "uint256",
          "name": "deadline",
          "type": "uint256"
        },
        {
          "internalType": "uint8",
          "name": "v",
          "type": "uint8"
        },
        {
          "internalType": "bytes32",
          "name": "r",
          "type": "bytes32"
        },
        {
          "internalType": "bytes32",
          "name": "s",
          "type": "bytes32"
        }
      ],
      "name": "permit",
      "outputs": [],
      "stateMutability": "nonpayable",
      "type": "function"
    },
    {
      "inputs": [],
      "name": "symbol",
      "outputs": [
        {
          "internalType": "string",
          "name": "",
          "type": "string"
        }
      ],
      "stateMutability": "view",
      "type": "function"
    },
    {
      "inputs": [],
      "name": "totalSupply",
      "outputs": [
        {
          "internalType": "uint256",
          "name": "",
          "type": "uint256"
        }
      ],
      "stateMutability": "view",
      "type": "function"
    },
    {
      "inputs": [
        {
          "internalType": "address",
          "name": "to",
          "type": "address"
        },
        {
          "internalType": "uint256",
          "name": "amount",
          "type": "uint256"
        }
      ],
      "name": "transfer",
      "outputs": [
        {
          "internalType": "bool",
          "name": "",
          "type": "bool"
        }
      ],
      "stateMutability": "nonpayable",
      "type": "function"
    },
    {
      "inputs": [
        {
          "internalType": "address",
          "name": "from",
          "type": "address"
        },
        {
          "internalType": "address",
          "name": "to",
          "type": "address"
        },
        {
          "internalType": "uint256",
          "name": "amount",
          "type": "uint256"
        }
      ],
      "name": "transferFrom",
      "outputs": [
        {
          "internalType": "bool",
          "name": "",
          "type": "bool"
        }
      ],
      "stateMutability": "nonpayable",
      "type": "function"
    }
  ],
  "bytecode": "0x6101606040527f6e71edae12b1b97f4d1f60370fef10105fa2faae0126114a169c64845d6126c9610140523480156200003757600080fd5b506040518060400160405280601581526020017f4e4654204d696e692055746f70696120546f6b656e000000000000000000000081525080604051806040016040528060018152602001603160f81b8152506040518060400160405280601581526020017f4e4654204d696e692055746f70696120546f6b656e0000000000000000000000815250604051806040016040528060048152602001631393555560e21b8152508160039080519060200190620000f4929190620002c4565b5080516200010a906004906020840190620002c4565b5050825160208085019190912083518483012060e08290526101008190524660a0818152604080517f8b73c3c69bb8fe3d512ecc4cf759cc79239f7b179b0ffacaa9a75d522b39400f81880181905281830187905260608201869052608082019490945230818401528151808203909301835260c0019052805194019390932091935091906080523060601b60c0526101205250620001d69350339250620001b3915050601290565b620001c090600a620003ce565b620001d0906305f5e1006200049c565b620001dc565b62000511565b6001600160a01b038216620002375760405162461bcd60e51b815260206004820152601f60248201527f45524332303a206d696e7420746f20746865207a65726f206164647265737300604482015260640160405180910390fd5b80600260008282546200024b91906200036a565b90915550506001600160a01b038216600090815260208190526040812080548392906200027a9084906200036a565b90915550506040518181526001600160a01b038316906000907fddf252ad1be2c89b69c2b068fc378daa952ba7f163c4a11628f55a4df523b3ef9060200160405180910390a35050565b828054620002d290620004be565b90600052602060002090601f016020900481019282620002f6576000855562000341565b82601f106200031157805160ff191683800117855562000341565b8280016001018555821562000341579182015b828111156200034157825182559160200191906001019062000324565b506200034f92915062000353565b5090565b5b808211156200034f576000815560010162000354565b60008219821115620003805762000380620004fb565b500190565b600181815b80851115620003c6578160001904821115620003aa57620003aa620004fb565b80851615620003b857918102915b93841c93908002906200038a565b509250929050565b6000620003df60ff841683620003e6565b9392505050565b600082620003f75750600162000496565b81620004065750600062000496565b81600181146200041f57600281146200042a576200044a565b600191505062000496565b60ff8411156200043e576200043e620004fb565b50506001821b62000496565b5060208310610133831016604e8410600b84101617156200046f575081810a62000496565b6200047b838362000385565b8060001904821115620004925762000492620004fb565b0290505b92915050565b6000816000190483118215151615620004b957620004b9620004fb565b500290565b600181811c90821680620004d357607f821691505b60208210811415620004f557634e487b7160e01b600052602260045260246000fd5b50919050565b634e487b7160e01b600052601160045260246000fd5b60805160a05160c05160601c60e051610100516101205161014051610feb6200056f600039600061047b01526000610999015260006109e8015260006109c30152600061091c01526000610946015260006109700152610feb6000f3fe608060405234801561001057600080fd5b50600436106100ea5760003560e01c806370a082311161008c578063a457c2d711610066578063a457c2d7146101c3578063a9059cbb146101d6578063d505accf146101e9578063dd62ed3e146101fe57600080fd5b806370a082311461017f5780637ecebe00146101a857806395d89b41146101bb57600080fd5b806323b872dd116100c857806323b872dd14610142578063313ce567146101555780633644e51514610164578063395093511461016c57600080fd5b806306fdde03146100ef578063095ea7b31461010d57806318160ddd14610130575b600080fd5b6100f7610237565b6040516101049190610f09565b60405180910390f35b61012061011b366004610ee0565b6102c9565b6040519015158152602001610104565b6002545b604051908152602001610104565b610120610150366004610e34565b6102e1565b60405160128152602001610104565b610134610305565b61012061017a366004610ee0565b610314565b61013461018d366004610de1565b6001600160a01b031660009081526020819052604090205490565b6101346101b6366004610de1565b610353565b6100f7610373565b6101206101d1366004610ee0565b610382565b6101206101e4366004610ee0565b610419565b6101fc6101f7366004610e6f565b610427565b005b61013461020c366004610e02565b6001600160a01b03918216600090815260016020908152604080832093909416825291909152205490565b60606003805461024690610f80565b80601f016020809104026020016040519081016040528092919081815260200182805461027290610f80565b80156102bf5780601f10610294576101008083540402835291602001916102bf565b820191906000526020600020905b8154815290600101906020018083116102a257829003601f168201915b5050505050905090565b6000336102d781858561058b565b5060019392505050565b6000336102ef8582856106af565b6102fa858585610741565b506001949350505050565b600061030f61090f565b905090565b3360008181526001602090815260408083206001600160a01b03871684529091528120549091906102d7908290869061034e908790610f5c565b61058b565b6001600160a01b0381166000908152600560205260408120545b92915050565b60606004805461024690610f80565b3360008181526001602090815260408083206001600160a01b03871684529091528120549091908381101561040c5760405162461bcd60e51b815260206004820152602560248201527f45524332303a2064656372656173656420616c6c6f77616e63652062656c6f77604482015264207a65726f60d81b60648201526084015b60405180910390fd5b6102fa828686840361058b565b6000336102d7818585610741565b834211156104775760405162461bcd60e51b815260206004820152601d60248201527f45524332305065726d69743a206578706972656420646561646c696e650000006044820152606401610403565b60007f00000000000000000000000000000000000000000000000000000000000000008888886104a68c610a36565b6040805160208101969096526001600160a01b0394851690860152929091166060840152608083015260a082015260c0810186905260e001604051602081830303815290604052805190602001209050600061050182610a5e565b9050600061051182878787610aac565b9050896001600160a01b0316816001600160a01b0316146105745760405162461bcd60e51b815260206004820152601e60248201527f45524332305065726d69743a20696e76616c6964207369676e617475726500006044820152606401610403565b61057f8a8a8a61058b565b50505050505050505050565b6001600160a01b0383166105ed5760405162461bcd60e51b8152602060048201526024808201527f45524332303a20617070726f76652066726f6d20746865207a65726f206164646044820152637265737360e01b6064820152608401610403565b6001600160a01b03821661064e5760405162461bcd60e51b815260206004820152602260248201527f45524332303a20617070726f766520746f20746865207a65726f206164647265604482015261737360f01b6064820152608401610403565b6001600160a01b0383811660008181526001602090815260408083209487168084529482529182902085905590518481527f8c5be1e5ebec7d5bd14f71427d1e84f3dd0314c0f7b2291e5b200ac8c7c3b925910160405180910390a3505050565b6001600160a01b03838116600090815260016020908152604080832093861683529290522054600019811461073b578181101561072e5760405162461bcd60e51b815260206004820152601d60248201527f45524332303a20696e73756666696369656e7420616c6c6f77616e63650000006044820152606401610403565b61073b848484840361058b565b50505050565b6001600160a01b0383166107a55760405162461bcd60e51b815260206004820152602560248201527f45524332303a207472616e736665722066726f6d20746865207a65726f206164604482015264647265737360d81b6064820152608401610403565b6001600160a01b0382166108075760405162461bcd60e51b815260206004820152602360248201527f45524332303a207472616e7366657220746f20746865207a65726f206164647260448201526265737360e81b6064820152608401610403565b6001600160a01b0383166000908152602081905260409020548181101561087f5760405162461bcd60e51b815260206004820152602660248201527f45524332303a207472616e7366657220616d6f756e7420657863656564732062604482015265616c616e636560d01b6064820152608401610403565b6001600160a01b038085166000908152602081905260408082208585039055918516815290812080548492906108b6908490610f5c565b92505081905550826001600160a01b0316846001600160a01b03167fddf252ad1be2c89b69c2b068fc378daa952ba7f163c4a11628f55a4df523b3ef8460405161090291815260200190565b60405180910390a361073b565b6000306001600160a01b037f00000000000000000000000000000000000000000000000000000000000000001614801561096857507f000000000000000000000000000000000000000000000000000000000000000046145b1561099257507f000000000000000000000000000000000000000000000000000000000000000090565b50604080517f00000000000000000000000000000000000000000000000000000000000000006020808301919091527f0000000000000000000000000000000000000000000000000000000000000000828401527f000000000000000000000000000000000000000000000000000000000000000060608301524660808301523060a0808401919091528351808403909101815260c0909201909252805191012090565b6001600160a01b03811660009081526005602052604090208054600181018255905b50919050565b600061036d610a6b61090f565b8360405161190160f01b6020820152602281018390526042810182905260009060620160405160208183030381529060405280519060200120905092915050565b6000806000610abd87878787610ad4565b91509150610aca81610bc1565b5095945050505050565b6000807f7fffffffffffffffffffffffffffffff5d576e7357a4501ddfe92f46681b20a0831115610b0b5750600090506003610bb8565b8460ff16601b14158015610b2357508460ff16601c14155b15610b345750600090506004610bb8565b6040805160008082526020820180845289905260ff881692820192909252606081018690526080810185905260019060a0016020604051602081039080840390855afa158015610b88573d6000803e3d6000fd5b5050604051601f1901519150506001600160a01b038116610bb157600060019250925050610bb8565b9150600090505b94509492505050565b6000816004811115610be357634e487b7160e01b600052602160045260246000fd5b1415610bec5750565b6001816004811115610c0e57634e487b7160e01b600052602160045260246000fd5b1415610c5c5760405162461bcd60e51b815260206004820152601860248201527f45434453413a20696e76616c6964207369676e617475726500000000000000006044820152606401610403565b6002816004811115610c7e57634e487b7160e01b600052602160045260246000fd5b1415610ccc5760405162461bcd60e51b815260206004820152601f60248201527f45434453413a20696e76616c6964207369676e6174757265206c656e677468006044820152606401610403565b6003816004811115610cee57634e487b7160e01b600052602160045260246000fd5b1415610d475760405162461bcd60e51b815260206004820152602260248201527f45434453413a20696e76616c6964207369676e6174757265202773272076616c604482015261756560f01b6064820152608401610403565b6004816004811115610d6957634e487b7160e01b600052602160045260246000fd5b1415610dc25760405162461bcd60e51b815260206004820152602260248201527f45434453413a20696e76616c6964207369676e6174757265202776272076616c604482015261756560f01b6064820152608401610403565b50565b80356001600160a01b0381168114610ddc57600080fd5b919050565b600060208284031215610df2578081fd5b610dfb82610dc5565b9392505050565b60008060408385031215610e14578081fd5b610e1d83610dc5565b9150610e2b60208401610dc5565b90509250929050565b600080600060608486031215610e48578081fd5b610e5184610dc5565b9250610e5f60208501610dc5565b9150604084013590509250925092565b600080600080600080600060e0888a031215610e89578283fd5b610e9288610dc5565b9650610ea060208901610dc5565b95506040880135945060608801359350608088013560ff81168114610ec3578384fd5b9699959850939692959460a0840135945060c09093013592915050565b60008060408385031215610ef2578182fd5b610efb83610dc5565b946020939093013593505050565b6000602080835283518082850152825b81811015610f3557858101830151858201604001528201610f19565b81811115610f465783604083870101525b50601f01601f1916929092016040019392505050565b60008219821115610f7b57634e487b7160e01b81526011600452602481fd5b500190565b600181811c90821680610f9457607f821691505b60208210811415610a5857634e487b7160e01b600052602260045260246000fdfea2646970667358221220c199608435e6eecb1d436e8b1284889a189399c1b96fa986475bfc7b4d3e6c0464736f6c63430008040033",
  "linkReferences": {},
  "deployedLinkReferences": {}
}