{
  "_format": "hh-sol-artifact-1",
  "contractName": "NFTMarketplace",
  "sourceName": "contracts/NFTMarketplace.sol",
  "abi": [
    {
      "inputs": [
        {
          "internalType": "address",
          "name": "_rewardsToken",
          "type": "address"
        }
      ],
      "stateMutability": "nonpayable",
      "type": "constructor"
    },
    {
      "anonymous": false,
      "inputs": [
        {
          "indexed": true,
          "internalType": "address",
          "name": "owner",
          "type": "address"
        },
        {
          "indexed": true,
          "internalType": "address",
          "name": "approved",
          "type": "address"
        },
        {
          "indexed": true,
          "internalType": "uint256",
          "name": "tokenId",
          "type": "uint256"
        }
      ],
      "name": "Approval",
      "type": "event"
    },
    {
      "anonymous": false,
      "inputs": [
        {
          "indexed": true,
          "internalType": "address",
          "name": "owner",
          "type": "address"
        },
        {
          "indexed": true,
          "internalType": "address",
          "name": "operator",
          "type": "address"
        },
        {
          "indexed": false,
          "internalType": "bool",
          "name": "approved",
          "type": "bool"
        }
      ],
      "name": "ApprovalForAll",
      "type": "event"
    },
    {
      "anonymous": false,
      "inputs": [
        {
          "indexed": true,
          "internalType": "uint256",
          "name": "tokenId",
          "type": "uint256"
        },
        {
          "indexed": false,
          "internalType": "address",
          "name": "seller",
          "type": "address"
        },
        {
          "indexed": false,
          "internalType": "address",
          "name": "owner",
          "type": "address"
        },
        {
          "indexed": false,
          "internalType": "uint256",
          "name": "price",
          "type": "uint256"
        },
        {
          "indexed": false,
          "internalType": "bool",
          "name": "sold",
          "type": "bool"
        }
      ],
      "name": "MarketItemCreated",
      "type": "event"
    },
    {
      "anonymous": false,
      "inputs": [
        {
          "indexed": true,
          "internalType": "uint256",
          "name": "tokenId",
          "type": "uint256"
        },
        {
          "indexed": false,
          "internalType": "address",
          "name": "seller",
          "type": "address"
        },
        {
          "indexed": false,
          "internalType": "address",
          "name": "owner",
          "type": "address"
        },
        {
          "indexed": false,
          "internalType": "uint256",
          "name": "price",
          "type": "uint256"
        },
        {
          "indexed": false,
          "internalType": "bool",
          "name": "sold",
          "type": "bool"
        }
      ],
      "name": "PersonalItemCreated",
      "type": "event"
    },
    {
      "anonymous": false,
      "inputs": [
        {
          "indexed": true,
          "internalType": "address",
          "name": "from",
          "type": "address"
        },
        {
          "indexed": true,
          "internalType": "address",
          "name": "to",
          "type": "address"
        },
        {
          "indexed": true,
          "internalType": "uint256",
          "name": "tokenId",
          "type": "uint256"
        }
      ],
      "name": "Transfer",
      "type": "event"
    },
    {
      "anonymous": false,
      "inputs": [
        {
          "indexed": false,
          "internalType": "address",
          "name": "sender",
          "type": "address"
        },
        {
          "indexed": false,
          "internalType": "address",
          "name": "to",
          "type": "address"
        },
        {
          "indexed": false,
          "internalType": "uint256",
          "name": "amount",
          "type": "uint256"
        }
      ],
      "name": "TransferSent",
      "type": "event"
    },
    {
      "inputs": [
        {
          "internalType": "address",
          "name": "to",
          "type": "address"
        },
        {
          "internalType": "uint256",
          "name": "tokenId",
          "type": "uint256"
        }
      ],
      "name": "approve",
      "outputs": [],
      "stateMutability": "nonpayable",
      "type": "function"
    },
    {
      "inputs": [
        {
          "internalType": "address",
          "name": "_staker",
          "type": "address"
        }
      ],
      "name": "availableRewards",
      "outputs": [
        {
          "internalType": "uint256",
          "name": "",
          "type": "uint256"
        }
      ],
      "stateMutability": "view",
      "type": "function"
    },
    {
      "inputs": [
        {
          "internalType": "address",
          "name": "owner",
          "type": "address"
        }
      ],
      "name": "balanceOf",
      "outputs": [
        {
          "internalType": "uint256",
          "name": "",
          "type": "uint256"
        }
      ],
      "stateMutability": "view",
      "type": "function"
    },
    {
      "inputs": [],
      "name": "claimRewards",
      "outputs": [],
      "stateMutability": "nonpayable",
      "type": "function"
    },
    {
      "inputs": [
        {
          "internalType": "uint256",
          "name": "tokenId",
          "type": "uint256"
        }
      ],
      "name": "createMarketSale",
      "outputs": [],
      "stateMutability": "payable",
      "type": "function"
    },
    {
      "inputs": [
        {
          "internalType": "string",
          "name": "tokenURI",
          "type": "string"
        },
        {
          "internalType": "uint256",
          "name": "price",
          "type": "uint256"
        }
      ],
      "name": "createPersonalToken",
      "outputs": [
        {
          "internalType": "uint256",
          "name": "",
          "type": "uint256"
        }
      ],
      "stateMutability": "payable",
      "type": "function"
    },
    {
      "inputs": [
        {
          "internalType": "string",
          "name": "tokenURI",
          "type": "string"
        },
        {
          "internalType": "uint256",
          "name": "price",
          "type": "uint256"
        }
      ],
      "name": "createToken",
      "outputs": [
        {
          "internalType": "uint256",
          "name": "",
          "type": "uint256"
        }
      ],
      "stateMutability": "payable",
      "type": "function"
    },
    {
      "inputs": [],
      "name": "fetchItemsListed",
      "outputs": [
        {
          "components": [
            {
              "internalType": "uint256",
              "name": "tokenId",
              "type": "uint256"
            },
            {
              "internalType": "address payable",
              "name": "seller",
              "type": "address"
            },
            {
              "internalType": "address payable",
              "name": "owner",
              "type": "address"
            },
            {
              "internalType": "uint256",
              "name": "price",
              "type": "uint256"
            },
            {
              "internalType": "bool",
              "name": "sold",
              "type": "bool"
            }
          ],
          "internalType": "struct NFTMarketplace.MarketItem[]",
          "name": "",
          "type": "tuple[]"
        }
      ],
      "stateMutability": "view",
      "type": "function"
    },
    {
      "inputs": [],
      "name": "fetchMarketItems",
      "outputs": [
        {
          "components": [
            {
              "internalType": "uint256",
              "name": "tokenId",
              "type": "uint256"
            },
            {
              "internalType": "address payable",
              "name": "seller",
              "type": "address"
            },
            {
              "internalType": "address payable",
              "name": "owner",
              "type": "address"
            },
            {
              "internalType": "uint256",
              "name": "price",
              "type": "uint256"
            },
            {
              "internalType": "bool",
              "name": "sold",
              "type": "bool"
            }
          ],
          "internalType": "struct NFTMarketplace.MarketItem[]",
          "name": "",
          "type": "tuple[]"
        }
      ],
      "stateMutability": "view",
      "type": "function"
    },
    {
      "inputs": [],
      "name": "fetchMyNFTs",
      "outputs": [
        {
          "components": [
            {
              "internalType": "uint256",
              "name": "tokenId",
              "type": "uint256"
            },
            {
              "internalType": "address payable",
              "name": "seller",
              "type": "address"
            },
            {
              "internalType": "address payable",
              "name": "owner",
              "type": "address"
            },
            {
              "internalType": "uint256",
              "name": "price",
              "type": "uint256"
            },
            {
              "internalType": "bool",
              "name": "sold",
              "type": "bool"
            }
          ],
          "internalType": "struct NFTMarketplace.MarketItem[]",
          "name": "",
          "type": "tuple[]"
        }
      ],
      "stateMutability": "view",
      "type": "function"
    },
    {
      "inputs": [
        {
          "internalType": "uint256",
          "name": "tokenId",
          "type": "uint256"
        }
      ],
      "name": "getApproved",
      "outputs": [
        {
          "internalType": "address",
          "name": "",
          "type": "address"
        }
      ],
      "stateMutability": "view",
      "type": "function"
    },
    {
      "inputs": [],
      "name": "getCurrentTokenId",
      "outputs": [
        {
          "internalType": "uint256",
          "name": "",
          "type": "uint256"
        }
      ],
      "stateMutability": "view",
      "type": "function"
    },
    {
      "inputs": [],
      "name": "getListingPrice",
      "outputs": [
        {
          "internalType": "uint256",
          "name": "",
          "type": "uint256"
        }
      ],
      "stateMutability": "view",
      "type": "function"
    },
    {
      "inputs": [
        {
          "internalType": "uint256",
          "name": "tokenId",
          "type": "uint256"
        }
      ],
      "name": "getOwner",
      "outputs": [
        {
          "internalType": "address",
          "name": "",
          "type": "address"
        }
      ],
      "stateMutability": "view",
      "type": "function"
    },
    {
      "inputs": [
        {
          "internalType": "uint256",
          "name": "tokenId",
          "type": "uint256"
        }
      ],
      "name": "getPrice",
      "outputs": [
        {
          "internalType": "uint256",
          "name": "",
          "type": "uint256"
        }
      ],
      "stateMutability": "view",
      "type": "function"
    },
    {
      "inputs": [
        {
          "internalType": "address",
          "name": "_user",
          "type": "address"
        }
      ],
      "name": "getStakedTokens",
      "outputs": [
        {
          "components": [
            {
              "internalType": "address",
              "name": "staker",
              "type": "address"
            },
            {
              "internalType": "uint256",
              "name": "tokenId",
              "type": "uint256"
            }
          ],
          "internalType": "struct NFTMarketplace.StakedToken[]",
          "name": "",
          "type": "tuple[]"
        }
      ],
      "stateMutability": "view",
      "type": "function"
    },
    {
      "inputs": [],
      "name": "getZeroAdrress",
      "outputs": [
        {
          "internalType": "address",
          "name": "",
          "type": "address"
        }
      ],
      "stateMutability": "pure",
      "type": "function"
    },
    {
      "inputs": [
        {
          "internalType": "address",
          "name": "owner",
          "type": "address"
        },
        {
          "internalType": "address",
          "name": "operator",
          "type": "address"
        }
      ],
      "name": "isApprovedForAll",
      "outputs": [
        {
          "internalType": "bool",
          "name": "",
          "type": "bool"
        }
      ],
      "stateMutability": "view",
      "type": "function"
    },
    {
      "inputs": [],
      "name": "name",
      "outputs": [
        {
          "internalType": "string",
          "name": "",
          "type": "string"
        }
      ],
      "stateMutability": "view",
      "type": "function"
    },
    {
      "inputs": [
        {
          "internalType": "uint256",
          "name": "tokenId",
          "type": "uint256"
        }
      ],
      "name": "ownerOf",
      "outputs": [
        {
          "internalType": "address",
          "name": "",
          "type": "address"
        }
      ],
      "stateMutability": "view",
      "type": "function"
    },
    {
      "inputs": [
        {
          "internalType": "uint256",
          "name": "tokenId",
          "type": "uint256"
        },
        {
          "internalType": "uint256",
          "name": "price",
          "type": "uint256"
        }
      ],
      "name": "resellToken",
      "outputs": [],
      "stateMutability": "payable",
      "type": "function"
    },
    {
      "inputs": [],
      "name": "rewardsToken",
      "outputs": [
        {
          "internalType": "contract IERC20",
          "name": "",
          "type": "address"
        }
      ],
      "stateMutability": "view",
      "type": "function"
    },
    {
      "inputs": [
        {
          "internalType": "address",
          "name": "from",
          "type": "address"
        },
        {
          "internalType": "address",
          "name": "to",
          "type": "address"
        },
        {
          "internalType": "uint256",
          "name": "tokenId",
          "type": "uint256"
        }
      ],
      "name": "safeTransferFrom",
      "outputs": [],
      "stateMutability": "nonpayable",
      "type": "function"
    },
    {
      "inputs": [
        {
          "internalType": "address",
          "name": "from",
          "type": "address"
        },
        {
          "internalType": "address",
          "name": "to",
          "type": "address"
        },
        {
          "internalType": "uint256",
          "name": "tokenId",
          "type": "uint256"
        },
        {
          "internalType": "bytes",
          "name": "_data",
          "type": "bytes"
        }
      ],
      "name": "safeTransferFrom",
      "outputs": [],
      "stateMutability": "nonpayable",
      "type": "function"
    },
    {
      "inputs": [
        {
          "internalType": "address",
          "name": "operator",
          "type": "address"
        },
        {
          "internalType": "bool",
          "name": "approved",
          "type": "bool"
        }
      ],
      "name": "setApprovalForAll",
      "outputs": [],
      "stateMutability": "nonpayable",
      "type": "function"
    },
    {
      "inputs": [
        {
          "internalType": "uint256",
          "name": "_tokenId",
          "type": "uint256"
        }
      ],
      "name": "stake",
      "outputs": [],
      "stateMutability": "nonpayable",
      "type": "function"
    },
    {
      "inputs": [
        {
          "internalType": "uint256",
          "name": "",
          "type": "uint256"
        }
      ],
      "name": "stakerAddress",
      "outputs": [
        {
          "internalType": "address",
          "name": "",
          "type": "address"
        }
      ],
      "stateMutability": "view",
      "type": "function"
    },
    {
      "inputs": [
        {
          "internalType": "address",
          "name": "",
          "type": "address"
        }
      ],
      "name": "stakers",
      "outputs": [
        {
          "internalType": "uint256",
          "name": "amountStaked",
          "type": "uint256"
        },
        {
          "internalType": "uint256",
          "name": "timeOfLastUpdate",
          "type": "uint256"
        },
        {
          "internalType": "uint256",
          "name": "unclaimedRewards",
          "type": "uint256"
        }
      ],
      "stateMutability": "view",
      "type": "function"
    },
    {
      "inputs": [
        {
          "internalType": "bytes4",
          "name": "interfaceId",
          "type": "bytes4"
        }
      ],
      "name": "supportsInterface",
      "outputs": [
        {
          "internalType": "bool",
          "name": "",
          "type": "bool"
        }
      ],
      "stateMutability": "view",
      "type": "function"
    },
    {
      "inputs": [],
      "name": "symbol",
      "outputs": [
        {
          "internalType": "string",
          "name": "",
          "type": "string"
        }
      ],
      "stateMutability": "view",
      "type": "function"
    },
    {
      "inputs": [],
      "name": "tokenID",
      "outputs": [
        {
          "internalType": "uint256",
          "name": "",
          "type": "uint256"
        }
      ],
      "stateMutability": "view",
      "type": "function"
    },
    {
      "inputs": [
        {
          "internalType": "uint256",
          "name": "tokenId",
          "type": "uint256"
        }
      ],
      "name": "tokenURI",
      "outputs": [
        {
          "internalType": "string",
          "name": "",
          "type": "string"
        }
      ],
      "stateMutability": "view",
      "type": "function"
    },
    {
      "inputs": [
        {
          "internalType": "address",
          "name": "from",
          "type": "address"
        },
        {
          "internalType": "address",
          "name": "to",
          "type": "address"
        },
        {
          "internalType": "uint256",
          "name": "tokenId",
          "type": "uint256"
        }
      ],
      "name": "transferFrom",
      "outputs": [],
      "stateMutability": "nonpayable",
      "type": "function"
    },
    {
      "inputs": [
        {
          "internalType": "uint256",
          "name": "_listingPrice",
          "type": "uint256"
        }
      ],
      "name": "updateListingPrice",
      "outputs": [],
      "stateMutability": "payable",
      "type": "function"
    },
    {
      "inputs": [
        {
          "internalType": "uint256",
          "name": "_tokenId",
          "type": "uint256"
        }
      ],
      "name": "withdraw",
      "outputs": [],
      "stateMutability": "nonpayable",
      "type": "function"
    }
  ],
  "bytecode": "0x60a06040526658d15e17628000600a556103e8600d553480156200002257600080fd5b506040516200354238038062003542833981016040819052620000459162000187565b604080518082018252601081526f4d657461766572736520546f6b656e7360801b6020808301918252835180850190945260048452631351551560e21b9084015281519192916200009991600091620000e1565b508051620000af906001906020840190620000e1565b505060016007555060601b6001600160601b031916608052600b8054336001600160a01b0319909116179055620001f4565b828054620000ef90620001b7565b90600052602060002090601f0160209004810192826200011357600085556200015e565b82601f106200012e57805160ff19168380011785556200015e565b828001600101855582156200015e579182015b828111156200015e57825182559160200191906001019062000141565b506200016c92915062000170565b5090565b5b808211156200016c576000815560010162000171565b60006020828403121562000199578081fd5b81516001600160a01b0381168114620001b0578182fd5b9392505050565b600181811c90821680620001cc57607f821691505b60208210811415620001ee57634e487b7160e01b600052602260045260246000fd5b50919050565b60805160601c6133286200021a600039600081816105e901526110bb01526133286000f3fe6080604052600436106102045760003560e01c80639168ae7211610118578063b88d4fde116100a0578063d1af0c7d1161006f578063d1af0c7d146105d7578063e219fc751461060b578063e75722301461061e578063e985e9c51461064e578063f854a27f1461069757600080fd5b8063b88d4fde1461054b578063be9af5361461056b578063c41a360a1461057e578063c87b56dd146105b757600080fd5b8063a22cb465116100e7578063a22cb465146104e5578063a5c42ef11461039a578063a694fc3a14610505578063ad141f9614610525578063ae677aa31461053857600080fd5b80639168ae721461042f578063940670451461048657806395d89b41146104bc5780639f66dd1d146104d157600080fd5b80632e1a7d4d1161019b578063561892361161016a578063561892361461039a5780636352211e146103af57806363c28db1146103cf57806370a08231146103fc57806372b3b6201461041c57600080fd5b80632e1a7d4d14610330578063372500ab1461035057806342842e0e1461036557806345f8fa801461038557600080fd5b80630f08efe0116101d75780630f08efe0146102ba57806312e85585146102dc578063202e3740146102fb57806323b872dd1461031057600080fd5b806301ffc9a71461020957806306fdde031461023e578063081812fc14610260578063095ea7b314610298575b600080fd5b34801561021557600080fd5b50610229610224366004612e45565b6106b7565b60405190151581526020015b60405180910390f35b34801561024a57600080fd5b50610253610709565b6040516102359190613083565b34801561026c57600080fd5b5061028061027b366004612ed3565b61079b565b6040516001600160a01b039091168152602001610235565b3480156102a457600080fd5b506102b86102b3366004612e00565b610828565b005b3480156102c657600080fd5b506102cf61093e565b6040516102359190612fbc565b3480156102e857600080fd5b50600a545b604051908152602001610235565b34801561030757600080fd5b506102cf610af2565b34801561031c57600080fd5b506102b861032b366004612d16565b610ce4565b34801561033c57600080fd5b506102b861034b366004612ed3565b610d15565b34801561035c57600080fd5b506102b8611022565b34801561037157600080fd5b506102b8610380366004612d16565b6110e4565b34801561039157600080fd5b506102cf6110ff565b3480156103a657600080fd5b506102ed6112f1565b3480156103bb57600080fd5b506102806103ca366004612ed3565b611301565b3480156103db57600080fd5b506103ef6103ea366004612cca565b611378565b6040516102359190613038565b34801561040857600080fd5b506102ed610417366004612cca565b6115af565b6102ed61042a366004612e7d565b611636565b34801561043b57600080fd5b5061046b61044a366004612cca565b600e6020526000908152604090208054600282015460039092015490919083565b60408051938452602084019290925290820152606001610235565b34801561049257600080fd5b506102806104a1366004612ed3565b600f602052600090815260409020546001600160a01b031681565b3480156104c857600080fd5b50610253611678565b3480156104dd57600080fd5b506000610280565b3480156104f157600080fd5b506102b8610500366004612dca565b611687565b34801561051157600080fd5b506102b8610520366004612ed3565b611696565b6102ed610533366004612e7d565b611873565b6102b8610546366004612ed3565b6118ae565b34801561055757600080fd5b506102b8610566366004612d51565b611926565b6102b8610579366004612ed3565b61195e565b34801561058a57600080fd5b50610280610599366004612ed3565b6000908152600c60205260409020600201546001600160a01b031690565b3480156105c357600080fd5b506102536105d2366004612ed3565b611ac6565b3480156105e357600080fd5b506102807f000000000000000000000000000000000000000000000000000000000000000081565b6102b8610619366004612f03565b611c3d565b34801561062a57600080fd5b506102ed610639366004612ed3565b6000908152600c602052604090206003015490565b34801561065a57600080fd5b50610229610669366004612ce4565b6001600160a01b03918216600090815260056020908152604080832093909416825291909152205460ff1690565b3480156106a357600080fd5b506102ed6106b2366004612cca565b611d35565b60006001600160e01b031982166380ac58cd60e01b14806106e857506001600160e01b03198216635b5e139f60e01b145b8061070357506301ffc9a760e01b6001600160e01b03198316145b92915050565b60606000805461071890613222565b80601f016020809104026020016040519081016040528092919081815260200182805461074490613222565b80156107915780601f1061076657610100808354040283529160200191610791565b820191906000526020600020905b81548152906001019060200180831161077457829003601f168201915b5050505050905090565b60006107a682611d66565b61080c5760405162461bcd60e51b815260206004820152602c60248201527f4552433732313a20617070726f76656420717565727920666f72206e6f6e657860448201526b34b9ba32b73a103a37b5b2b760a11b60648201526084015b60405180910390fd5b506000908152600460205260409020546001600160a01b031690565b600061083382611301565b9050806001600160a01b0316836001600160a01b031614156108a15760405162461bcd60e51b815260206004820152602160248201527f4552433732313a20617070726f76616c20746f2063757272656e74206f776e656044820152603960f91b6064820152608401610803565b336001600160a01b03821614806108bd57506108bd8133610669565b61092f5760405162461bcd60e51b815260206004820152603860248201527f4552433732313a20617070726f76652063616c6c6572206973206e6f74206f7760448201527f6e6572206e6f7220617070726f76656420666f7220616c6c00000000000000006064820152608401610803565b6109398383611d83565b505050565b6060600061094b60085490565b9050600061095860095490565b60085461096591906131c8565b90506000808267ffffffffffffffff81111561099157634e487b7160e01b600052604160045260246000fd5b6040519080825280602002602001820160405280156109ea57816020015b6040805160a0810182526000808252602080830182905292820181905260608201819052608082015282526000199092019101816109af5790505b50905060005b84811015610ae95730600c6000610a0884600161317d565b81526020810191909152604001600020600201546001600160a01b03161415610ad7576000610a3882600161317d565b6000818152600c6020908152604091829020825160a0810184528154815260018201546001600160a01b039081169382019390935260028201549092169282019290925260038201546060820152600482015460ff161515608082015285519293509091859087908110610abc57634e487b7160e01b600052603260045260246000fd5b6020908102919091010152610ad260018661317d565b945050505b80610ae18161325d565b9150506109f0565b50949350505050565b60606000610aff60085490565b905060008060005b83811015610b625733600c6000610b1f84600161317d565b81526020810191909152604001600020600201546001600160a01b03161415610b5057610b4d60018461317d565b92505b80610b5a8161325d565b915050610b07565b5060008267ffffffffffffffff811115610b8c57634e487b7160e01b600052604160045260246000fd5b604051908082528060200260200182016040528015610be557816020015b6040805160a081018252600080825260208083018290529282018190526060820181905260808201528252600019909201910181610baa5790505b50905060005b84811015610ae95733600c6000610c0384600161317d565b81526020810191909152604001600020600201546001600160a01b03161415610cd2576000610c3382600161317d565b6000818152600c6020908152604091829020825160a0810184528154815260018201546001600160a01b039081169382019390935260028201549092169282019290925260038201546060820152600482015460ff161515608082015285519293509091859087908110610cb757634e487b7160e01b600052603260045260246000fd5b6020908102919091010152610ccd60018661317d565b945050505b80610cdc8161325d565b915050610beb565b610cee3382611df1565b610d0a5760405162461bcd60e51b81526004016108039061312c565b610939838383611ed7565b60026007541415610d685760405162461bcd60e51b815260206004820152601f60248201527f5265656e7472616e637947756172643a207265656e7472616e742063616c6c006044820152606401610803565b6002600755336000908152600e6020526040902054610dc95760405162461bcd60e51b815260206004820152601960248201527f596f752068617665206e6f20746f6b656e73207374616b6564000000000000006044820152606401610803565b6000818152600f60205260409020546001600160a01b03163314610e2b5760405162461bcd60e51b8152602060048201526019602482015278596f7520646f6e2774206f776e207468697320746f6b656e2160381b6044820152606401610803565b6000610e3633612073565b336000908152600e6020526040812060030180549293508392909190610e5d90849061317d565b9091555060009050805b336000908152600e6020526040902060010154811015610f3e57336000908152600e60205260409020600101805485919083908110610eb657634e487b7160e01b600052603260045260246000fd5b906000526020600020906002020160010154148015610f1f5750336000908152600e60205260408120600101805483908110610f0257634e487b7160e01b600052603260045260246000fd5b60009182526020909120600290910201546001600160a01b031614155b15610f2c57809150610f3e565b80610f368161325d565b915050610e67565b50336000908152600e60205260408120600101805483908110610f7157634e487b7160e01b600052603260045260246000fd5b6000918252602080832060029290920290910180546001600160a01b0319166001600160a01b039490941693909317909255338152600e90915260408120805491610fbb8361320b565b90915550506000838152600f6020908152604080832080546001600160a01b0319908116909155600c90925290912060020180543392168217905561100290309085611ed7565b5050336000908152600e6020526040902042600290910155506001600755565b336000818152600e6020526040812060030154909161104090612073565b61104a919061317d565b90506000811161109c5760405162461bcd60e51b815260206004820152601c60248201527f596f752068617665206e6f207265776172647320746f20636c61696d000000006044820152606401610803565b336000818152600e60205260408120426002820155600301556110e1907f000000000000000000000000000000000000000000000000000000000000000090836120c7565b50565b61093983838360405180602001604052806000815250611926565b6060600061110c60085490565b905060008060005b8381101561116f5733600c600061112c84600161317d565b81526020810191909152604001600020600101546001600160a01b0316141561115d5761115a60018461317d565b92505b806111678161325d565b915050611114565b5060008267ffffffffffffffff81111561119957634e487b7160e01b600052604160045260246000fd5b6040519080825280602002602001820160405280156111f257816020015b6040805160a0810182526000808252602080830182905292820181905260608201819052608082015282526000199092019101816111b75790505b50905060005b84811015610ae95733600c600061121084600161317d565b81526020810191909152604001600020600101546001600160a01b031614156112df57600061124082600161317d565b6000818152600c6020908152604091829020825160a0810184528154815260018201546001600160a01b039081169382019390935260028201549092169282019290925260038201546060820152600482015460ff1615156080820152855192935090918590879081106112c457634e487b7160e01b600052603260045260246000fd5b60209081029190910101526112da60018661317d565b945050505b806112e98161325d565b9150506111f8565b60006112fc60085490565b905090565b6000818152600260205260408120546001600160a01b0316806107035760405162461bcd60e51b815260206004820152602960248201527f4552433732313a206f776e657220717565727920666f72206e6f6e657869737460448201526832b73a103a37b5b2b760b91b6064820152608401610803565b6001600160a01b0381166000908152600e602052604090205460609015611566576001600160a01b0382166000908152600e602052604081205467ffffffffffffffff8111156113d857634e487b7160e01b600052604160045260246000fd5b60405190808252806020026020018201604052801561141d57816020015b60408051808201909152600080825260208201528152602001906001900390816113f65790505b5090506000805b6001600160a01b0385166000908152600e602052604090206001015481101561155d576001600160a01b0385166000908152600e6020526040812060010180548390811061148257634e487b7160e01b600052603260045260246000fd5b60009182526020909120600290910201546001600160a01b03161461154b576001600160a01b0385166000908152600e602052604090206001018054829081106114dc57634e487b7160e01b600052603260045260246000fd5b60009182526020918290206040805180820190915260029092020180546001600160a01b031682526001015491810191909152835184908490811061153157634e487b7160e01b600052603260045260246000fd5b602002602001018190525081806115479061325d565b9250505b806115558161325d565b915050611424565b50909392505050565b60408051600080825260208201909252906115a3565b604080518082019091526000808252602082015281526020019060019003908161157c5790505b5092915050565b919050565b60006001600160a01b03821661161a5760405162461bcd60e51b815260206004820152602a60248201527f4552433732313a2062616c616e636520717565727920666f7220746865207a65604482015269726f206164647265737360b01b6064820152608401610803565b506001600160a01b031660009081526003602052604090205490565b6000611646600880546001019055565b600061165160085490565b905061165d33826122b0565b61166781856123e3565b611671818461246e565b9392505050565b60606001805461071890613222565b6116923383836125c5565b5050565b600260075414156116e95760405162461bcd60e51b815260206004820152601f60248201527f5265656e7472616e637947756172643a207265656e7472616e742063616c6c006044820152606401610803565b6002600755336000908152600e60205260409020541561173c57600061170e33612073565b336000908152600e602052604081206003018054929350839290919061173590849061317d565b9091555050505b6000818152600c60205260409020600201546001600160a01b031633146117a15760405162461bcd60e51b8152602060048201526019602482015278596f7520646f6e2774206f776e207468697320746f6b656e2160381b6044820152606401610803565b6117ac333083611ed7565b6040805180820182523380825260208083018581526000838152600e8352948520600180820180548083018255908852938720865160029095020180546001600160a01b0319166001600160a01b03909516949094178455915192909101919091559083528054919261181e8361325d565b9091555050506000908152600f602090815260408083208054336001600160a01b03199182168117909255600c845282852060029081018054909216909155908452600e909252909120429101556001600755565b6000611883600880546001019055565b600061188e60085490565b905061189a33826122b0565b6118a481856123e3565b6116718184612694565b600b546001600160a01b031633146119215760405162461bcd60e51b815260206004820152603060248201527f4f6e6c79206d61726b6574706c616365206f776e65722063616e20757064617460448201526f32903634b9ba34b73390383934b1b29760811b6064820152608401610803565b600a55565b6119303383611df1565b61194c5760405162461bcd60e51b81526004016108039061312c565b6119588484848461281c565b50505050565b6000818152600c60205260409020600301543481146119e7576040805162461bcd60e51b81526020600482015260248101919091527f506c65617365207375626d6974207468652061736b696e67207072696365206960448201527f6e206f7264657220746f20636f6d706c657465207468652070757263686173656064820152608401610803565b6000828152600c602052604090206002810180546001600160a01b0319908116331790915560048201805460ff1916600190811790915590910180549091169055611a36600980546001019055565b611a41303384611ed7565b600b54600a546040516001600160a01b039092169181156108fc0291906000818181858888f19350505050158015611a7d573d6000803e3d6000fd5b506000828152600c60205260408082206001015490516001600160a01b03909116913480156108fc02929091818181858888f19350505050158015610939573d6000803e3d6000fd5b6060611ad182611d66565b611b375760405162461bcd60e51b815260206004820152603160248201527f45524337323155524953746f726167653a2055524920717565727920666f72206044820152703737b732bc34b9ba32b73a103a37b5b2b760791b6064820152608401610803565b60008281526006602052604081208054611b5090613222565b80601f0160208091040260200160405190810160405280929190818152602001828054611b7c90613222565b8015611bc95780601f10611b9e57610100808354040283529160200191611bc9565b820191906000526020600020905b815481529060010190602001808311611bac57829003601f168201915b505050505090506000611be760408051602081019091526000815290565b9050805160001415611bfa575092915050565b815115611c2c578082604051602001611c14929190612f50565b60405160208183030381529060405292505050919050565b611c358461284f565b949350505050565b6000828152600c60205260409020600201546001600160a01b03163314611cb95760405162461bcd60e51b815260206004820152602a60248201527f4f6e6c79206974656d206f776e65722063616e20706572666f726d20746869736044820152691037b832b930ba34b7b760b11b6064820152608401610803565b600a543414611cda5760405162461bcd60e51b8152600401610803906130e8565b6000828152600c6020526040902060048101805460ff19169055600381018290556001810180546001600160a01b031990811633179091556002909101805490911630179055611d2a6009612926565b611692333084611ed7565b6001600160a01b0381166000908152600e60205260408120600301548190611d5c84612073565b611671919061317d565b6000908152600260205260409020546001600160a01b0316151590565b600081815260046020526040902080546001600160a01b0319166001600160a01b0384169081179091558190611db882611301565b6001600160a01b03167f8c5be1e5ebec7d5bd14f71427d1e84f3dd0314c0f7b2291e5b200ac8c7c3b92560405160405180910390a45050565b6000611dfc82611d66565b611e5d5760405162461bcd60e51b815260206004820152602c60248201527f4552433732313a206f70657261746f7220717565727920666f72206e6f6e657860448201526b34b9ba32b73a103a37b5b2b760a11b6064820152608401610803565b6000611e6883611301565b9050806001600160a01b0316846001600160a01b03161480611ea35750836001600160a01b0316611e988461079b565b6001600160a01b0316145b80611c3557506001600160a01b0380821660009081526005602090815260408083209388168352929052205460ff16611c35565b826001600160a01b0316611eea82611301565b6001600160a01b031614611f4e5760405162461bcd60e51b815260206004820152602560248201527f4552433732313a207472616e736665722066726f6d20696e636f72726563742060448201526437bbb732b960d91b6064820152608401610803565b6001600160a01b038216611fb05760405162461bcd60e51b8152602060048201526024808201527f4552433732313a207472616e7366657220746f20746865207a65726f206164646044820152637265737360e01b6064820152608401610803565b611fbb600082611d83565b6001600160a01b0383166000908152600360205260408120805460019290611fe49084906131c8565b90915550506001600160a01b038216600090815260036020526040812080546001929061201290849061317d565b909155505060008181526002602052604080822080546001600160a01b0319166001600160a01b0386811691821790925591518493918716917fddf252ad1be2c89b69c2b068fc378daa952ba7f163c4a11628f55a4df523b3ef91a4505050565b600d546001600160a01b0382166000908152600e6020526040812080546002909101549192610e10929091906120a990426131c8565b6120b391906131a9565b6120bd91906131a9565b6107039190613195565b600b546001600160a01b031633146121215760405162461bcd60e51b815260206004820152601d60248201527f4f6e6c79206f776e65722063616e2077697468647261772066756e64730000006044820152606401610803565b6040516370a0823160e01b81523060048201526000906001600160a01b038516906370a082319060240160206040518083038186803b15801561216357600080fd5b505afa158015612177573d6000803e3d6000fd5b505050506040513d601f19601f8201168201806040525081019061219b9190612eeb565b9050808211156121de5760405162461bcd60e51b815260206004820152600e60248201526d62616c616e6365206973206c6f7760901b6044820152606401610803565b60405163a9059cbb60e01b81526001600160a01b0384811660048301526024820184905285169063a9059cbb90604401602060405180830381600087803b15801561222857600080fd5b505af115801561223c573d6000803e3d6000fd5b505050506040513d601f19601f820116820180604052508101906122609190612e29565b50604080513381526001600160a01b03851660208201529081018390527ffda3a3e0e1479b43cb1c701f7576187f4c4ad80768d627387e00184302f7d88e9060600160405180910390a150505050565b6001600160a01b0382166123065760405162461bcd60e51b815260206004820181905260248201527f4552433732313a206d696e7420746f20746865207a65726f20616464726573736044820152606401610803565b61230f81611d66565b1561235c5760405162461bcd60e51b815260206004820152601c60248201527f4552433732313a20746f6b656e20616c7265616479206d696e746564000000006044820152606401610803565b6001600160a01b038216600090815260036020526040812080546001929061238590849061317d565b909155505060008181526002602052604080822080546001600160a01b0319166001600160a01b03861690811790915590518392907fddf252ad1be2c89b69c2b068fc378daa952ba7f163c4a11628f55a4df523b3ef908290a45050565b6123ec82611d66565b61244f5760405162461bcd60e51b815260206004820152602e60248201527f45524337323155524953746f726167653a2055524920736574206f66206e6f6e60448201526d32bc34b9ba32b73a103a37b5b2b760911b6064820152608401610803565b6000828152600660209081526040909120825161093992840190612ba4565b600081116124be5760405162461bcd60e51b815260206004820152601c60248201527f5072696365206d757374206265206174206c65617374203120776569000000006044820152606401610803565b600a5434146124df5760405162461bcd60e51b8152600401610803906130e8565b6040805160a08101825283815233602080830182815230848601818152606086018881526000608088018181528b8252600c909652979097209551865591516001860180546001600160a01b03199081166001600160a01b0393841617909155925160028701805490941691161790915593516003840155516004909201805460ff1916921515929092179091556125779184611ed7565b604080513381523060208201529081018290526000606082015282907fb640004f1d14576d0c209e240cad0410e0d8c0c33a09375861fbadae2588a98d906080015b60405180910390a25050565b816001600160a01b0316836001600160a01b031614156126275760405162461bcd60e51b815260206004820152601960248201527f4552433732313a20617070726f766520746f2063616c6c6572000000000000006044820152606401610803565b6001600160a01b03838116600081815260056020908152604080832094871680845294825291829020805460ff191686151590811790915591519182527f17307eab39ab6107e8899845ad3d59bd9653f200f220920489ca2b5937696c31910160405180910390a3505050565b600081116126e45760405162461bcd60e51b815260206004820152601c60248201527f5072696365206d757374206265206174206c65617374203120776569000000006044820152606401610803565b6040805160a08101825283815233602080830182815230848601818152606086018881526000608088018181528b8252600c909652979097209551865591516001860180546001600160a01b03199081166001600160a01b0393841617909155925160028701805490941691161790915593516003840155516004909201805460ff19169215159290921790915561277c9184611ed7565b6000828152600c602052604090206002810180546001600160a01b0319908116331790915560048201805460ff19166001908117909155909101805490911690556127cb600980546001019055565b6127d6303384611ed7565b604080513081523360208201529081018290526001606082015282907fd6cae11418ba2a1ec659992393f3db3926b5d6391aba2e8e6032a490247a0767906080016125b9565b612827848484611ed7565b6128338484848461297d565b6119585760405162461bcd60e51b815260040161080390613096565b606061285a82611d66565b6128be5760405162461bcd60e51b815260206004820152602f60248201527f4552433732314d657461646174613a2055524920717565727920666f72206e6f60448201526e3732bc34b9ba32b73a103a37b5b2b760891b6064820152608401610803565b60006128d560408051602081019091526000815290565b905060008151116128f55760405180602001604052806000815250611671565b806128ff84612a8a565b604051602001612910929190612f50565b6040516020818303038152906040529392505050565b8054806129755760405162461bcd60e51b815260206004820152601b60248201527f436f756e7465723a2064656372656d656e74206f766572666c6f7700000000006044820152606401610803565b600019019055565b60006001600160a01b0384163b15612a7f57604051630a85bd0160e11b81526001600160a01b0385169063150b7a02906129c1903390899088908890600401612f7f565b602060405180830381600087803b1580156129db57600080fd5b505af1925050508015612a0b575060408051601f3d908101601f19168201909252612a0891810190612e61565b60015b612a65573d808015612a39576040519150601f19603f3d011682016040523d82523d6000602084013e612a3e565b606091505b508051612a5d5760405162461bcd60e51b815260040161080390613096565b805181602001fd5b6001600160e01b031916630a85bd0160e11b149050611c35565b506001949350505050565b606081612aae5750506040805180820190915260018152600360fc1b602082015290565b8160005b8115612ad85780612ac28161325d565b9150612ad19050600a83613195565b9150612ab2565b60008167ffffffffffffffff811115612b0157634e487b7160e01b600052604160045260246000fd5b6040519080825280601f01601f191660200182016040528015612b2b576020820181803683370190505b5090505b8415611c3557612b406001836131c8565b9150612b4d600a86613278565b612b5890603061317d565b60f81b818381518110612b7b57634e487b7160e01b600052603260045260246000fd5b60200101906001600160f81b031916908160001a905350612b9d600a86613195565b9450612b2f565b828054612bb090613222565b90600052602060002090601f016020900481019282612bd25760008555612c18565b82601f10612beb57805160ff1916838001178555612c18565b82800160010185558215612c18579182015b82811115612c18578251825591602001919060010190612bfd565b50612c24929150612c28565b5090565b5b80821115612c245760008155600101612c29565b600067ffffffffffffffff80841115612c5857612c586132b8565b604051601f8501601f19908116603f01168101908282118183101715612c8057612c806132b8565b81604052809350858152868686011115612c9957600080fd5b858560208301376000602087830101525050509392505050565b80356001600160a01b03811681146115aa57600080fd5b600060208284031215612cdb578081fd5b61167182612cb3565b60008060408385031215612cf6578081fd5b612cff83612cb3565b9150612d0d60208401612cb3565b90509250929050565b600080600060608486031215612d2a578081fd5b612d3384612cb3565b9250612d4160208501612cb3565b9150604084013590509250925092565b60008060008060808587031215612d66578081fd5b612d6f85612cb3565b9350612d7d60208601612cb3565b925060408501359150606085013567ffffffffffffffff811115612d9f578182fd5b8501601f81018713612daf578182fd5b612dbe87823560208401612c3d565b91505092959194509250565b60008060408385031215612ddc578182fd5b612de583612cb3565b91506020830135612df5816132ce565b809150509250929050565b60008060408385031215612e12578182fd5b612e1b83612cb3565b946020939093013593505050565b600060208284031215612e3a578081fd5b8151611671816132ce565b600060208284031215612e56578081fd5b8135611671816132dc565b600060208284031215612e72578081fd5b8151611671816132dc565b60008060408385031215612e8f578182fd5b823567ffffffffffffffff811115612ea5578283fd5b8301601f81018513612eb5578283fd5b612ec485823560208401612c3d565b95602094909401359450505050565b600060208284031215612ee4578081fd5b5035919050565b600060208284031215612efc578081fd5b5051919050565b60008060408385031215612f15578182fd5b50508035926020909101359150565b60008151808452612f3c8160208601602086016131df565b601f01601f19169290920160200192915050565b60008351612f628184602088016131df565b835190830190612f768183602088016131df565b01949350505050565b6001600160a01b0385811682528416602082015260408101839052608060608201819052600090612fb290830184612f24565b9695505050505050565b602080825282518282018190526000919060409081850190868401855b8281101561302b57815180518552868101516001600160a01b03908116888701528682015116868601526060808201519086015260809081015115159085015260a09093019290850190600101612fd9565b5091979650505050505050565b602080825282518282018190526000919060409081850190868401855b8281101561302b57815180516001600160a01b03168552860151868501529284019290850190600101613055565b6020815260006116716020830184612f24565b60208082526032908201527f4552433732313a207472616e7366657220746f206e6f6e20455243373231526560408201527131b2b4bb32b91034b6b83632b6b2b73a32b960711b606082015260800190565b60208082526024908201527f5072696365206d75737420626520657175616c20746f206c697374696e6720706040820152637269636560e01b606082015260800190565b60208082526031908201527f4552433732313a207472616e736665722063616c6c6572206973206e6f74206f6040820152701ddb995c881b9bdc88185c1c1c9bdd9959607a1b606082015260800190565b600082198211156131905761319061328c565b500190565b6000826131a4576131a46132a2565b500490565b60008160001904831182151516156131c3576131c361328c565b500290565b6000828210156131da576131da61328c565b500390565b60005b838110156131fa5781810151838201526020016131e2565b838111156119585750506000910152565b60008161321a5761321a61328c565b506000190190565b600181811c9082168061323657607f821691505b6020821081141561325757634e487b7160e01b600052602260045260246000fd5b50919050565b60006000198214156132715761327161328c565b5060010190565b600082613287576132876132a2565b500690565b634e487b7160e01b600052601160045260246000fd5b634e487b7160e01b600052601260045260246000fd5b634e487b7160e01b600052604160045260246000fd5b80151581146110e157600080fd5b6001600160e01b0319811681146110e157600080fdfea26469706673582212202dc46517eb4ac6874ec3b90916f436ddb1e96f136beb1e009a774ed1f5f26a7864736f6c63430008040033",
  "linkReferences": {},
  "deployedLinkReferences": {}
}